:020000040800F2
:10000000282C00204D0100086B0C0008670C00082C
:1000100000000000000000000000000000000000E0
:10002000000000000000000000000000150D0008A6
:1000300000000000000000000B010008170D000880
:100040005F0100085F0100085F0100085F01000810
:100050005F0100085F0100085F0100085F01000800
:100060005F0100085F0100085F0100085F010008F0
:100070005F0100085F0100085F0100085F010008E0
:100080005F0100085F0100085F0100085F010008D0
:100090005F0100085F0100085F0100085F010008C0
:1000A0005F0100085F0100085F0100085F010008B0
:1000B0005F0100085F0100085F0100085F010008A0
:1000C0000348854600F016F9004800473112000841
:1000D000282C0020084B19680868203080F3098814
:1000E000022080F31488BFF36F8F3FBCAE4608BC7C
:1000F00004BC62B6184700001C000020EFF310801B
:1001000072B6704780F310887047EFF309800E4B8A
:100110001A6820381060F0C044464D4656465F4687
:10012000F0C008B572B601F093FF62B60CBC11685E
:1001300008681030F0C8A046A946B246BB4680F316
:1001400009882038F0C818471C0000200448804760
:1001500004480047FEE7FEE7FEE7FEE7FEE7FEE7AE
:100160002D0D0008C100000830B50B4601460020E7
:100170002022012409E00D46D5409D4205D31D46AD
:100180009540491B2546954040191546521E002DA5
:10019000F1DC30BDF0B51FB40646002082B0054644
:1001A0004024019100901BE0019922460F46304601
:1001B00000F08FF8049A059B801A994110D31046DD
:1001C0001946224600F075F8361A8F4101972246EB
:1001D00001200021009F00F06CF838184D4100907C
:1001E0002046641E0028DFDC019B00982946324629
:1001F00007B0F0BDF0B51FB486B0002000900190AC
:1002000002900698069980B204900798090C02049F
:100210000014114307900027089D099806913E4657
:100220003C4603900398A9B20204000C0390049882
:100230002D0C154348430021224600F03AF8C71917
:10024000714110340E46402CECDB3846029A00F027
:1002500030F8009A019B8018009059410298019152
:10026000103002904028CCDB00980BB0F0BDD2B229
:1002700001E00270401C491EFBD270470022F6E7E5
:1002800010B513460A4604461946FFF7F0FF20460C
:1002900010BD421C0178401C0029FBD1801A704718
:1002A00003460A780270401C491C002AF9D11846FE
:1002B000704710B5202A04DB0146203A9140002007
:1002C00010BD914020239C1A0346E34019439040FF
:1002D00010BD10B5202A04DB0846203AD04000218A
:1002E00010BD0B46D340D0402024A21A91400843B1
:1002F000194610BD064C0125064E05E0E36807CC03
:100300002B430C3C98471034B442F7D3FFF7DCFE84
:10031000B0270008D027000800BFFEE708B501F0AD
:10032000E5FF009000BF002000F086F800BF192113
:10033000684601F065FFF6E71CB5002400BF641CA9
:100340001148006801F0A4FB054601F0EDFE0646E9
:1003500001F098FB074601F0C9FF33463A460146D3
:100360000095019009A000F059FD05212046FFF7F6
:10037000FBFE002903D100F0A9FC00F077FC64200B
:1003800001F036FDDBE70000040000205B743D2532
:10039000756D735D207461736B733D257520667296
:1003A0006565486561703D257542206C65645374D0
:1003B00061636B4D696E467265653D257520776F8B
:1003C0007264730D0A00000010B586B00446142153
:1003D00001A8FFF753FF00BF00BF1448406B012185
:1003E0000843124948630846406BC007C00F00909D
:1003F00000BF00BF00BF60000D49085A01900120F6
:1004000002900020039002200490A100094A505855
:1004100001A900F08DF86200054B995AA200054B26
:100420009858012200F06CF906B010BD001002408F
:10043000D02600080800002010B504466200044BD6
:10044000995AA200034B985800F052F910BD0000D1
:10045000D02600080800002000B587B0142102A8AB
:10046000FFF70CFF00BF002001902D48C06B012159
:10047000890408432A49C8630846C06B01218904DE
:100480000840019000BF00BF264827490860E120CE
:10049000400248600321244881600021C16001615D
:1004A000416100F0F5F900BF1D48406B022108438F
:1004B0001B4948630846406B02210840019000BF79
:1004C00000BF00BF1648406B084315494863084603
:1004D000406B02210840019000BF00BF080202905B
:1004E0000220039001200490032005900B20069029
:1004F00002A90E4800F01CF8FF20013002900B20EA
:10050000069002A9094800F013F8002211461D20A8
:1005100000F080F91D2000F06BF907B000BD00006D
:1005200000100240004800408000002000040050FD
:1005300070B503460022CEE0012696400C68344098
:10054000002C71D04D68022D02D04D68122D15D1AE
:10055000D508AE001D462035A8595507EE0E0F25CB
:10056000B5400646AE4330465607F60E0D69B54017
:100570002843D508AD001E46203670511868560035
:100580000325B5400646AE4330460D79AD07AD0FA5
:100590005600B540284318604D68012D08D04D68BD
:1005A000022D05D04D68112D02D04D68122D18D1A5
:1005B000986856000325B5400646AE4330465600BF
:1005C000CD68B54028439860586801259540064697
:1005D000AE43304610264D6835402D0995402843DE
:1005E0005860D86856000325B5400646AE433046ED
:1005F00056008D68B5402843D860012636074D68FF
:100600003540B54266D1374DD608B600A8595507D2
:10061000EE0E0F25B5400646AE43304605252D07A4
:10062000AB4202D100250BE054E02F4DAB4201D18B
:10063000012505E02D4DAB4201D1022500E0032547
:100640005607F60EB5402843264DD608B600A851E9
:10065000244D103DA8690546A543284601263604C9
:100660004D683540B54202D10546254328461D4D0B
:10067000103DA861E8690546A54328460126760491
:100680004D683540B54202D1054625432846154DF3
:10069000103DE86128680546A54328460126360531
:1006A0004D683540B54202D10546254328460D4DDB
:1006B000103D286068680546A54328460126760552
:1006C0004D683540B54202D1054625432846054DC3
:1006D000103D6860521C0D68D540002D00D02BE7FE
:1006E00070BD0000100401400004005000080050DC
:1006F00042690A40002A01D0816200E081617047AE
:10070000002A01D0816100E08162704701480068E1
:100710007047000010000020034800680349096882
:1007200040180149086070471000002018000020A0
:1007300010B50024032000F009F8002801D001249E
:1007400001E000F033F8204610BD0000F8B5044683
:1007500000251348006800281ED0114801687D203C
:10076000C000FFF701FD074639460E480068FFF755
:10077000FBFC064600F070F800280BD1042C07D2D1
:1007800000222146401E00F045F80748046004E0BE
:10079000012502E0012500E001252846F8BD000002
:1007A00018000020000000201400002008B500BF41
:1007B0000E480068012108430C490860084600689B
:1007C000C007C00F009000BF00BF00BF07484038FF
:1007D000C06B8905084305494039C8630846C06BAA
:1007E00009040840009000BF00BF08BD401002404F
:1007F0000146002909DB00BF00BFCB06DB0E01224A
:100800009A40034B1A6000BF00BF00BF7047000052
:1008100000E100E070B504460D4616462946204624
:1008200000F02EFB70BD000001480068704700001A
:100830000000002000B5FFF7F7FF0549896807228F
:1008400012031140090B8900024A515CC84000BDE7
:10085000001002409026000870B504462546681E28
:100860000949884201D901200CE0681E0749486106
:100870000321081F00F004FB0020044988610720C1
:100880000861002070BD0000FFFFFF0000E000E0F5
:10089000F1B5B2B000BF3298002802D1012033B0C8
:1008A000F0BD329840304079002806D100213298BE
:1008B00040300171329800F059F9242132984030CB
:1008C00041713298C1680069084332994969084307
:1008D0003299096849698F229200914308433299FD
:1008E0000968486132988068401C002826D13298F7
:1008F0000068C1690120014332980068C1613298E3
:100900008169C069084332990968C9690A2291431B
:1009100002460A4332980068C2613298C0690228D0
:100920001FD132980068006A010A09023298001D3E
:10093000007F014332980068016212E0329800683B
:10094000C0694108490032980068C1613298006866
:1009500040698108890032988068014332980068B4
:100960004161FFF767FF00210B910A9032984068C0
:100970008400192300220B990A982D932C922E9112
:100980002F901A462C9BFFF735FC05462246002384
:10099000FFF700FC6422002307910690FFF7FAFBA3
:1009A000020F09011143060130913298406884001A
:1009B000192300220B990A98299328922A912B90A7
:1009C0001A46289BFFF716FC224600230591049047
:1009D000FFF7E0FB04460D46329840688000039024
:1009E000192300220B990A98259324922691279087
:1009F0001A46249BFFF7FEFB019100900023039A07
:100A0000FFF7C8FB6422002305910490FFF7C2FBA7
:100A10006423002221932092229123901A46209B46
:100A2000FFF7E8FB221A8D41102100201CAB23C3E5
:100A30001F92104629461C9B1D9AFFF7DBFB3223B1
:100A40000022C0184A4107920690642200230799A9
:100A5000FFF7A0FBF02318400021309D32184D41D4
:100A60003192329840688400192300220B990A9829
:100A7000199318921A911B901A46189BFFF7BAFB0C
:100A80002246002305910490FFF784FB06460F469B
:100A90003298406880000390192300220B990A982D
:100AA00015931492169117901A46149BFFF7A2FB08
:100AB000019100900023039AFFF76CFB642200234E
:100AC00005910490FFF766FB6422002310931192B6
:100AD00012911390FFF78EFB0A46311A97411022AC
:100AE00000200CAB85C30F91084639460C9BFFF7DD
:100AF00081FB32230022C0184A41079206906422EB
:100B000000230799FFF746FB0F2318400021319A75
:100B10001018694109910890329800684068020CE9
:100B200012040999090708980009084381B2104680
:100B3000084332990968486032980068806A010960
:100B400009010F22089802400846104301463298D6
:100B500000688162002132988164202132984030FF
:100B60004171329840308171002098E67047FFB59E
:100B700083B004460D461746002001904520005DD5
:100B800020286ED1002D01D0002F02D1012007B006
:100B9000F0BDA068401C002808D1A069082805D134
:100BA000E807C00F002801D00120F0E700BF442073
:100BB000005D012801D10220E9E70121442001550F
:100BC00000BF0020A064212145200155FFF79EFDB4
:100BD0000190A762E762A068401C002805D1A069C7
:100BE000082802D10026029502E02E46002002903D
:100BF0001EE006980090002220212046019B00F074
:100C0000DBF8002801D00320C1E7002E09D10298AB
:100C10000088C005C00D216808600298801C029001
:100C200003E0307821680860761CE06A401EE062CC
:100C3000E06A0028DDD1069800900022402120467D
:100C4000019B00F0B9F8002801D003209FE7202184
:100C50004520015500BF00214420015500BF002060
:100C600095E7022093E700BFFEE7704770B501F0FB
:100C700061FA044601F058FA054601235B03224657
:100C8000294602A000F0CAF870BD000046726565F2
:100C900052544F5320686561703A20667265652032
:100CA0003D20257520422C206D696E457665724683
:100CB000726565203D20257520422C20746F74617B
:100CC0006C203D20257520420D0A000010B505A0BE
:100CD00000F0A4F80D4801F0FFF80C490CA000F05A
:100CE0009DF810BD4E616D65202020202020202021
:100CF00020205374617465205072696F20205374F2
:100D000061636B20204E756D0D0A0000D02100201C
:100D100025730000704710B501F0D6FA012802D102
:100D2000FFF7FAFC01E001F027FA10BD1C4840680B
:100D3000000C00041B49898801225203114389B227
:100D40000843174948600846C06B09040843144922
:100D5000C8631548006803210903884351104018EF
:100D60001149086008460068891508430E49086063
:100D70000B484030C0690D4908400D49898CC905B0
:100D80008909084306494031C86107480068891548
:100D90008843054908609003064988607047000051
:100DA00000100240001EFF1F00700040FFFF01FC0A
:100DB000001FFF1F00ED00E0FFB581B004460D46A7
:100DC00017460A9E1DE0701C00281AD0002E05D080
:100DD000FFF79CFC0499401AB04212D92068806940
:100DE0000009000121688861202145200155462025
:100DF000015500BF00214420015500BF032005B06C
:100E0000F0BD206800692840A84201D1012000E01F
:100E10000020B842D7D00020F1E700000FB410B591
:100E200003A9044B044A029800F076F810BC08BCF1
:100E300004B01847151200087C0000200FB410B54C
:100E400004A9074B02AA039800F066F8044602A919
:100E5000002000F07BF9204610BC08BC04B0184705
:100E60004D11000830B47446641E2578641CAB42F2
:100E700004D3635D5B00E31830BC18471D46F8E7F8
:100E800010B5002819DB1A4A03231B02D218830865
:100E90009B00D2588307DC0EFF23A3409A438B07A5
:100EA0001B0E8407E40EA3401A43114B03242402B3
:100EB0001B198408A4001A5118E00E4A03071B0FDF
:100EC000083B9B089B00D2588307DC0EFF23A340FE
:100ED0009A438B071B0E8407E40EA3401A43054B6D
:100EE0000407240F083CA408A4001A5110BD0000F8
:100EF00000E100E01CED00E002E008C8121F08C19C
:100F0000002AFAD170477047002001E001C1121F8A
:100F1000002AFBD170470000FFB58FB00F46044692
:100F2000002606E025280AD0129A11999047641CE1
:100F3000761C20780028F5D1304613B0F0BD00258E
:100F40000121814A009500E00543641C237808468E
:100F5000203B98401042F7D120782E2815D104204C
:100F600005436078641C2A280AD101CF641C0090D4
:100F70000BE000990A22514330394018641C00905C
:100F80002078014630390929F3D920786C280ED011
:100F900004DC4C2813D06A2812D104E074280ED047
:100FA0007A280DD10BE001204005054307E001211F
:100FB000090562780D43824201D16D18641C641CDE
:100FC0002078692843D006DC0028B5D063280BD0F0
:100FD000642804D13BE073280FD075285DD0129AA5
:100FE00011999047761CADE0387869460872002068
:100FF000487202A80190012003E0386801900020A7
:10100000C0433F1D69070CD5002500E06D1C009909
:101010008D420FDA8542F9DB0199495D0029F5D14E
:1010200008E0002500E06D1C8542FCDB0199495D6C
:101030000029F8D1761907E0019801990078491C38
:101040000191129A119990476D1EF5D27AE0002015
:1010500001900A216802400F0E91022809D001CFA9
:10106000C11700290ADA0A460021404291412D2287
:1010700007E0FF1DFF08FF0003CFF2E72A0504D5B4
:101080002B226B461A72012203E0EA070ED02022BF
:10109000F7E70C920BAA0B9218E00A200E900021A1
:1010A0006802400F0191022802D001CF0022F0E730
:1010B000FF1DFF08FF0003CFF8E7019B0E9AFFF723
:1010C00069F80B9B5B1E30320B931A7002460A4381
:1010D000F3D10B9803A9081A20300190680701D4B6
:1010E0000120009000990198814203DD0846019992
:1010F000401A00E000200025009006E002A8129AA5
:10110000405D119990476D1C761C0C988542F5DB6B
:1011100004E0129A302011999047761C0099481EDD
:1011200000900029F5DC08E00B980B990078491C29
:101130000B91129A11999047761C0199481E0190C3
:101140000029F1DC641CF4E6092801000A68531C3C
:101150000B60107070470000FEB507463E46002E3B
:1011600003D11F491FA000F0F7FC25480068864204
:1011700001D1002431E000F08BFD75692148006841
:10118000019021480068009000F090FD0198854290
:1011900002D00098854201D102241EE01B488542FE
:1011A00013D1B06A00280ED1032400BF07E03146F6
:1011B0005431095C012901D1022402E0401C0128BC
:1011C000F5DB00BF09E0022407E01148854201D0A9
:1011D000002D01D1042400E001242046FEBD0000C2
:1011E0004A0500002E2E5C4672656552544F535CD2
:1011F000536F757263655C7461736B732E6300006B
:101200001C0000202000002024000020BC01002041
:10121000A801002013B50C467D23DB00012269469E
:101220000248FFF7A4FC00981CBD000080000020CD
:101230001CB5FFF77DFA0020FFF7C6F8FFF70CF9A1
:101240001C48FFF7EBFD1C4A1C4801681CA0FFF777
:10125000E5FD7D22D200FA2127A0FFF7DFFD31480E
:10126000022100238022009101902FA12F4800F03D
:1012700095FF0446012C04D02DA0FFF7CFFDFFF70A
:101280004BF80020012103460A020091019031A190
:10129000314800F083FF0446012C04D02FA0FFF753
:1012A000BDFDFFF739F800F07FFE3548FFF7B6FDCA
:1012B000FFF732F8D826000800127A00000000205C
:1012C00053797374656D436F7265436C6F636B2004
:1012D0003D20257520487A202028636F6E66696757
:1012E0004350555F434C4F434B5F485A203D2025A8
:1012F0007520487A290D0A00E997AAE781AFE591A0
:10130000A8E69C9F202575206D73EFBC8CE697A501
:10131000E5BF97E591A8E69C9F202575206D730D8C
:101320000A0D0A00040000206C6564001D0300081B
:101330005B4552524F525D20785461736B43726526
:10134000617465286C65642920E5A4B1E8B4A50D35
:101350000A0000006C6F6700390300085B455252B9
:101360004F525D20785461736B43726561746528D8
:101370006C6F672920E5A4B1E8B4A50D0A00000050
:1013800020270008F8B505460E46244807680021C6
:10139000234800684030417521480068001D00F076
:1013A0005DFB681C00281CD1002E1AD01D4948681E
:1013B0001B49096888601A4982680968CA60184927
:1013C0000968091D8268516015490968091D816015
:1013D000144A134909684A6111460968491C116099
:1013E0001AE07C190E4800684460BC4207D20C48E1
:1013F0000168091D0C48006800F02EFC0CE008484C
:101400000168091D0948006800F026FC08480068CA
:10141000844201D206480460F8BD0000300000207C
:101420001C000020BC01002024000020200000201F
:101430004C00002010B5044600F02AFC2D4800683E
:10144000401C2C4908602C480068002808D12A4814
:1014500004600846006801280ED100F03BF90BE05B
:1014600026480068002807D123480068C06AE16A5E
:10147000884201D82048046021480068401C204967
:1014800008600846006820641E49E06A09688842CE
:1014900002D91C49E06A08601422E16A51431A4AE1
:1014A00089184868A0608268E260211D82685160E6
:1014B00081601422E16A5143134A8A18626114223E
:1014C000E16A5143104A5158491C1423E26A5A43B5
:1014D0000D4B995000F0EAFB08480068002807D03F
:1014E00005480068C06AE16A884201D200F074FCD5
:1014F00010BD00002C0000201C000020380000203F
:101500004800002034000020CC00002010B516E078
:1015100000F0BEFB0C48C068C468201D00F09EFAB5
:101520000A480068401E0949086009480068401ED2
:101530000749086000F0BAFB204600F00BF80448A9
:1015400000680028E4D110BDA80100202C00002074
:101550002800002010B50446206B00F0D7FB204681
:1015600000F0D4FB10BD000030B501235B0315482B
:101570004407640F002C05D0C01DC008C000114CEA
:10158000041B1B1B0246104C226000240E4D6C6095
:10159000D0180838C008C0000C4C206000240B4D47
:1015A0002D686C60094D2D682C601146441A4C6002
:1015B000064C24680C60064D4C682C60054D4C6848
:1015C0002C6030BDD00100206000002068000020A9
:1015D000700000206C00002000BFFFF797FF044858
:1015E0000068012801D900F0F7FB00F0CFFAF4E71A
:1015F000CC000020FFB581B00F460A9E0C9C039AD8
:101600009100A522206BFEF732FE216B0398401E4D
:101610008000081800900098C008C0000090009852
:101620004007400F002801D1012000E000200028E1
:1016300003D1204920A000F08FFA002F10D0002500
:1016400008E0795D204634304155785D002800D1AE
:1016500002E06D1C0C2DF4D300BF00213F2001558A
:10166000082E01D2012000E00020002804D11149F9
:10167000353111A000F070FA082E00D30726E6627B
:10168000A664201D00F0E5FA2046183000F0E1FACB
:1016900024610820801BA0616462049A019900986B
:1016A00000F0CCF920600B98002801D00B98046062
:1016B00005B0F0BD5D0300002E2E5C4672656552DC
:1016C000544F535C536F757263655C7461736B73D5
:1016D0002E63000010B5002406E0142161430E4A79
:1016E000881800F0A9FA641C082CF6D30B4800F007
:1016F000A3FA0B4800F0A0FA0A4800F09DFA0A4845
:1017000000F09AFA094800F097FA0448084908607E
:1017100003480849086010BDCC0000206C0100207F
:101720008001002094010020A8010020BC010020BD
:10173000200000202400002010B50146164800E0DB
:10174000006803688B42FBD3024643689B188B42B8
:1017500004D143684C681B19436001460A464B6834
:101760009B180468A34211D10C4C03682468A3425F
:1017700008D04B68046864681B194B6003681B68D9
:101780000B6005E0054B1B680B6001E003680B6014
:10179000884200D0016010BD600000206800002079
:1017A000F7B582B007460C4600262068002829D0ED
:1017B00020464168496841600146083142688A42D2
:1017C00002D14168496841604168C968019100BF20
:1017D00020464168496841600146083142688A42B2
:1017E00002D14168496841604168CD682420704356
:1017F000C11901222846049B00F02CFB761C01989D
:101800008542E5D1304605B0F0BD00000A480068C9
:101810000068002801D1012000E00020002804D049
:101820000020C0430549086005E003480068C0681F
:101830000068024908607047200000204C0000202A
:101840000246002101E0521C491C1078A528FAD05C
:10185000890888B27047000008480068401C0028CA
:1018600001D1012000E00020002803D1AA2104A01A
:1018700000F072F972B600BFFEE700005C000020C5
:101880002E2E5C4672656552544F535C536F7572D1
:1018900063655C706F727461626C655C5256445330
:1018A0005C41524D5F434D305C706F72742E63002B
:1018B00070B505460E4631462846FEF7F1FC28462F
:1018C000FEF7E7FC044602E020202855641C0B2CA0
:1018D000FAD300202855281970BD0000FEB5054632
:1018E0000020019000F0ACFB43480068002801D1C3
:1018F000FFF73AFE002D13D06807400F1021081A99
:1019000000900021C9430098081AA84201D2012082
:1019100000E00020002802D100982D1800E00025EA
:10192000E817401C00284FD0002D4DD033480068E8
:10193000854249D8324E3046046801E02646246884
:101940006068A84202D220680028F7D12A480068BF
:10195000844239D030680830019020683060606877
:10196000401B102814D967197807400F002801D1AF
:10197000012000E00020002803D1DC2121A000F09C
:10198000EBF86068401B786065603846FFF7D4FE6E
:101990001A4960680968081A18490860084600680A
:1019A00024490968884203D2144800682149086024
:1019B0000121C907606808436060002020601E485C
:1019C0000068401C1C49086000F084FD0198002854
:1019D00001D100F0DDF801984007400F002801D147
:1019E000012000E00020002804D1FF211D3105A0C6
:1019F00000F0B2F80198FEBD680000206C000020E5
:101A0000600000202E2E5C4672656552544F535C78
:101A1000536F757263655C706F727461626C655C44
:101A20004D656D4D616E675C686561705F342E63F6
:101A3000000000007000002074000020001F01233F
:101A40001B060360001F0160001F034B0360143876
:101A500002602038704700005918000801460A69E2
:101A60004B68886898608B684868586050688842FE
:101A700001D188685060002008611068401E106025
:101A80001068704701480068704700002C00002073
:101A9000F8B50446002C02D10548006800E0204655
:101AA00007463D6B2846FFF7CBFE06463046F8BD9D
:101AB0001C000020F7B5054616460024082700F054
:101AC000BFFA1F4901980968884234D300BF7F1EBE
:101AD00014227A431B4BD11824226243501901224D
:101AE000FFF75EFE0419002FF1D12421614348194C
:101AF000022215490968FFF753FE041924216143A6
:101B00004819022211490968FFF74AFE04192421E5
:101B10006143481904220E49FFF742FE04192421AB
:101B20006143481903220B49FFF73AFE0419002EBE
:101B300001D00020306000F0CDFC2046FEBD00004A
:101B40002C000020CC0000202000002024000020D9
:101B5000A8010020BC01002004460D462A4621466B
:101B600002A0FFF75BF972B600BFFEE70D0A5B410A
:101B70005353455254204641494C45445D202573FA
:101B8000203A20256C750D0A000000007047000007
:101B900000F0CAFA0446214604A0FFF73FF90CA062
:101BA000FFF73CF972B600BFFEE700000D0A5B4D7F
:101BB000414C4C4F43204641494C45445D206672A0
:101BC000656548656170203D20257520420D0A003D
:101BD00020202D3E20E58AA0E5A4A720636F6E6635
:101BE0006967544F54414C5F484541505F53495ACF
:101BF000450D0A000C46214604A0FFF70FF90B48DB
:101C0000FFF70CF972B600BFFEE700000D0A5B5348
:101C10005441434B204F564552464C4F575D20741C
:101C200061736B203D2025730D0A00006C270008AE
:101C300010B5FEF771FD10BD01460831416000216D
:101C4000C943816001460831C16001610021016022
:101C5000704700210161704710B502460B685C1C9B
:101C6000002C01D1106907E01046083000E0406800
:101C7000446824689C42FAD944684C604C68A1606E
:101C8000886041600A611468641C146010BD000023
:101C900072B605480068401C03490860BFF34F8FC7
:101CA000BFF36F8F704700005C00002010B50A483A
:101CB0000068002804D1FF21123108A0FFF74CFF73
:101CC00005480068401E044908600846006800286E
:101CD00000D162B610BD00005C0000202E2E5C46D4
:101CE00072656552544F535C536F757263655C70D7
:101CF0006F727461626C655C525644535C41524D24
:101D00005F434D305C706F72742E630070B5064691
:101D10003546002E34D0083D2C466068C00F0028A0
:101D200004D1FF21303117A0FFF716FF20680028EB
:101D300001D1012000E00020002804D1FF21313131
:101D400010A0FFF709FF6068C00F002818D02068B6
:101D5000002815D1606840004008606000F070F90C
:101D60001449606809684018124908602046FFF766
:101D7000E3FC11480068401C0F49086000F0AAFB12
:101D800070BD00002E2E5C4672656552544F535C48
:101D9000536F757263655C706F727461626C655CC1
:101DA0004D656D4D616E675C686561705F342E6373
:101DB000000000006C000020780000200020044992
:101DC000086188610348486103200861704700008A
:101DD00000E000E07F38010001200007034948606F
:101DE000BFF34F8FBFF36F8F7047000000ED00E02F
:101DF00070B504460025002C15D00D480068002859
:101E000001D1012000E00020002803D109490AA0E7
:101E1000FFF7A2FE00F014F900212046FFF7B2FA06
:101E200000F058FB0546002D01D1FFF7D5FF70BD2E
:101E3000580000201C0500002E2E5C46726565527D
:101E4000544F535C536F757263655C7461736B734D
:101E50002E630000FFB581B007460C461E46002FDA
:101E600002D11C48006800E0384605462560284637
:101E700034306060E86A2061286BE061286CA06003
:101E8000A86C60610020A061052E13D01148006885
:101E9000854202D10020207310E02673032E0DD15D
:101EA00000F0CEF8A86A002801D00220207300F0CC
:101EB00011FB03E02846FFF74FF920730398002831
:101EC00004D0286BFFF7BCFC208401E000202084B4
:101ED00005B0F0BD1C000020FEB5064600203070A5
:101EE0002C48076801460968242251430846FFF739
:101EF000F5FC0546002D4BD0002239462846FFF759
:101F0000D9FD074600243EE0242060434019007BB1
:101F10000300FEF7A7FF0604070A0D10141358204C
:101F200002900FE0522002900CE04220029009E063
:101F30005320029006E04420029003E000BF0020FE
:101F4000029000BF00BF2420604340194168304622
:101F5000FFF7AEFC06462420604340198068242128
:101F600061434919098C0091019024206043401974
:101F7000036909A13046029AFEF760FF3046FEF77A
:101F800088F98619641CBC42BED32846FFF7BEFE02
:101F9000FEBD00002C0000200925630925750925D8
:101FA000750925750D0A00001CB5154800210B4662
:101FB00080220091019013A1144800F0EFF804462C
:101FC000012C0DD172B60020C043114908600120D8
:101FD0001049086000201049086000F0B1F80BE0DB
:101FE000601C002801D0012000E00020002803D15F
:101FF0000A490BA0FFF7B0FD104800681CBD0000A7
:102000005000002049444C4500000000D91500084C
:102010004C00002038000020300000201208000092
:102020002E2E5C4672656552544F535C536F757229
:1020300063655C7461736B732E6300005400002051
:1020400002480068401C01490860704758000020A1
:1020500070B527480068002803D001202549086092
:1020600044E000202349086023480068046B234DA6
:1020700029462068884208D16068884205D1A06856
:10208000884202D1E068884205D01B48016834319B
:102090000068FFF7AFFD1A48046806E0002C03D182
:1020A000184919A0FFF758FD641E142060431D490C
:1020B0000858002801D1012000E000200028EDD1BF
:1020C00014216143174A88184168496841600146F4
:1020D000083142688A4202D14168496841604168DA
:1020E000C968054A11600648046000BF70BD000061
:1020F00058000020400000201C000020A5A5A5A538
:1021000034000020F60B00002E2E5C4672656552EE
:10211000544F535C536F757263655C7461736B737A
:102120002E630000CC0000200148006870470000CA
:102130006C0000200148006870470000700000201B
:1021400010B50B48006AFF210904084308490862DA
:102150000846006AFF210906084305490862FFF79F
:102160002DFE002003490860FDF7B4FF002010BDDC
:1021700000ED00E05C00002010B5FDF7BFFF044655
:1021800000F0BAF8002803D0012000070249486097
:102190002046FDF7B7FF10BD00ED00E0FFB585B0AC
:1021A0001746B800FFF79AFB0646002E0FD05820BE
:1021B000FFF794FB0446002C05D058212046FEF77B
:1021C0005DF8266304E03046FFF7A0FD00E0002440
:1021D000002C10D000220F990E986B4613C3039267
:1021E0003A46089B06990598FFF704FA2046FFF740
:1021F00021F9012501E00025ED43284609B0F0BD95
:10220000FEB504460F4600200090002C03D124495F
:1022100024A0FFF7A1FC002F01D0012000E0002046
:10222000002804D11E49491C1EA0FFF795FC244834
:102230000068002801D1012000E00020002804D11E
:102240001749891C17A0FFF787FCFFF7F9FE1D4807
:1022500006682068C5192068B04207D92068A842DE
:102260000BD9B54209D90120009006E02068A842A8
:1022700001D8B54201D901200090256000980028BE
:1022800003D0A81B0021FFF77DF800F023F901908F
:102290000198002801D1FFF79FFD0098FEBD0000C6
:1022A000C40400002E2E5C4672656552544F535C88
:1022B000536F757263655C7461736B732E6300009A
:1022C000580000203000002006490968002901D18B
:1022D000012006E004490968002901D1022000E03C
:1022E000002070473800002058000020014908688D
:1022F0007047000030000020F8B5002000906248D0
:10230000006800287ED161480068451C5F48056070
:10231000002D1DD15E4800680068002801D1012011
:1023200000E00020002803D15A495BA0FFF714FC0D
:10233000574807685F480068554908605D4807606E
:102340005D480068401C5C490860FFF75FFA00BF09
:102350005A480068854275D300BF4D480068006840
:10236000002801D1012000E00020002804D0002036
:10237000C0435249086064E045480068C068C468CA
:102380006668B54202D24D4806605AE06069E2686C
:10239000A1688A60A268E1684A60211D42688A4299
:1023A00001D1E1684160002262610168491E01605B
:1023B000A06A002813D0A06A226AE1698A60E269F3
:1023C000216A4A602146183142688A4201D1216A55
:1023D00041600022A2620168491E016000BF3849C5
:1023E000E06A0968884202D93549E06A0860142227
:1023F000E16A5143334A89184868A0608268E26004
:10240000211D00E036E08268516081601422E16A9B
:1024100051432C4A8A1862611422E16A5143294AC5
:102420005158491C1423E26A5A43264B99502649B5
:10243000E06A0968C96A88428FD9012000908CE758
:1024400000E000BF20480068C06A142148431D49CD
:102450000858012801D9012000901C480068002874
:1024600001D1FFF7E5FB1A480068002801D00120E0
:10247000009006E015480068401C14490860FFF70A
:10248000D7FB0098F8BD0000580000203000002065
:1024900020000020B70A00002E2E5C4672656552AF
:1024A000544F535C536F757263655C7461736B73E7
:1024B0002E63000024000020440000204C00002077
:1024C00034000020CC0000201C0000203C00002034
:1024D0004000002070B5002400254D480068002809
:1024E00003D14C494CA0FFF737FBFFF7D1FB48481D
:1024F0000068401E464908600846006800287DD1F3
:102500004C48006800287FD056E04B48C068C4683B
:10251000A06A226AE1698A60E269216A4A6021460A
:10252000183142688A4201D1216A41600022A262C8
:102530000168491E01606069E268A1688A60A2685A
:10254000E1684A60211D42688A4201D1E168416028
:10255000002262610168491E01603849E06A096829
:10256000884202D93549E06A08601422E16A514381
:10257000334A89184868A0608268E260211D826839
:10258000516081601422E16A51432D4A8A186261C8
:102590001422E16A51432A4A5158491C1423E26A21
:1025A0005A43274B99502749E06A0968C96A88420B
:1025B00002D30120244908601F480068002801D187
:1025C000012000E0002000289FD0002C01D0FFF760
:1025D0001DF91E480668002E0DD000BFFFF78CFEC7
:1025E000002802D0012018490860761E002EF5D17F
:1025F0000020164908601448006800E004E0002844
:1026000002D00125FFF7E8FBFFF750FB284670BD1D
:1026100058000020850800002E2E5C467265655229
:10262000544F535C536F757263655C7461736B7365
:102630002E6300002C0000209401002034000020B4
:10264000CC0000201C000020400000203C000020A6
:10265000000000000000000000000000000000007A
:10266000000000000000000000000000000000006A
:102670000100000002000000030000000400000050
:10268000060000000700000008000000090000002C
:10269000000000000000000000000000000000003A
:1026A0000100000002000000030000000400000020
:1026B00000127A0000127A000024F40040865101D2
:1026C00000366E01006CDC020090D00300127A002C
:1026D00004000100050000000D0A0D0A3D3D3D3DCE
:1026E0003D3D3D3D3D3D3D3D3D3D3D3D2050593312
:1026F00032433838327843202B2046726565525475
:102700004F53205631302E352E31203D3D3D3D3D3D
:102710003D3D3D3D3D3D3D3D3D3D3D0D0A00000003
:102720005B464154414C5D20765461736B53746138
:1027300072745363686564756C6572282920E8BFFC
:1027400094E59B9EE4BA8620E2869220E6A380E68A
:102750009FA520636F6E666967544F54414C5F4874
:102760004541505F53495A450D0A000020202D3E37
:1027700020E68A8AE8BF99E4B8AAE4BBBBE58AA14F
:10278000E79A8420785461736B437265617465289D
:102790002920E6A088E58F82E695B028E58D95E4AE
:1027A000BD8D3DE5AD9729E58AA0E5A4A70D0A00FA
:1027B000D02700080000002080000000F80E00086C
:1027C0005028000880000020A82B0000080F0008F7
:1027D00000127A00000000000000005000000050CD
:1027E00000000000040000000100000000000000E4
:1027F00000000000000000000000000000000000D9
:1028000000000000000000000000000000000000C8
:1028100000000000000000000000000000000000B8
:10282000000000000700000000000000AAAAAAAAF9
:102830000000000000000000000000000000000098
:102840000000000000000000000000000000000088
:04000005080000C12E
:00000001FF
